:020000040800F2
:10000000A0E001208D330008F1020008F30200088F
:10001000F7020008FB020008FF02000800000000D1
:1000200000000000000000000000000003030008C2
:10003000050300080000000007030008090300088A
:10004000A7330008A7330008A7330008A733000828
:10005000A7330008A7330008A7330008A733000818
:10006000A7330008A7330008A7330008A733000808
:10007000A7330008A7330008A7330008052B0008A2
:10008000E72A0008A7330008A7330008A7330008B1
:10009000A7330008A7330008A7330008A7330008D8
:1000A000A7330008A7330008A7330008A7330008C8
:1000B000A7330008A7330008A7330008A7330008B8
:1000C000A7330008A7330008A7330008A7330008A8
:1000D000A7330008FB310008A7330008A733000846
:1000E000A7330008A7330008A7330008A733000888
:1000F000A7330008A7330008A7330008A733000878
:10010000A7330008C5210008A7330008A73300085B
:10011000A7330008A7330008A7330008A733000857
:10012000A7330008A7330008A7330008A733000847
:10013000A7330008A7330008A7330008A733000837
:10014000A7330008A7330008A7330008A733000827
:10015000A7330008A7330008A7330008A733000817
:10016000A7330008A7330008A7330008A733000807
:10017000A7330008A7330008A7330008A7330008F7
:10018000A7330008A733000800F002F800F06DF86C
:100190000AA090E8000C82448344AAF10107DA45E2
:1001A00001D100F062F8AFF2090EBAE80F0013F0C7
:1001B000010F18BFFB1A43F001031847C474010074
:1001C000E47401000A444FF0000C10F8013B13F0F6
:1001D000070408BF10F8014B1D1108BF10F8015BA0
:1001E000641E05D010F8016B641E01F8016BF9D193
:1001F00013F0080F1EBF10F8014BAD1C0C1B09D1EA
:100200006D1E58BF01F801CBFAD505E014F8016B5B
:1002100001F8016B6D1EF9D59142D6D370470000ED
:100220000023002400250026103A28BF78C1FBD8FF
:10023000520728BF30C148BF0B607047642912F0D5
:100240004B82752912F04882782912F08182632945
:1002500012F02E86732912F03386002070471FB5E6
:1002600013F0AEF91FBD10B510BD12F0CBFE114654
:10027000FFF7F5FF00F010F812F0E9FE03B4FFF706
:10028000F2FF03BC02F064FF30BF72B6704762B683
:10029000704780F3088870474FF4A06003F096F829
:1002A000A82002F0F1FF4FF4E13002F060FF02F00D
:1002B000CBF902F06BFD00F031F9002004F0B1FC45
:1002C000022004F0AEFC07F0CBFF074901220868CA
:1002D00006A106F05DF902F0BDFD02F0A7FD01E008
:1002E0000AF0D4FAFCE700000CB90120303A000013
:1002F000704700BFFEE700BFFEE700BFFEE700BF9C
:10030000FEE7704770477047704700000CB500204B
:10031000019000907648006840F48030744908608D
:1003200000BF7348006800F4003000900198401C42
:100330000190009818B90198B0F5A04FF1D16C4820
:10034000006800F4003010B10120009001E00020AE
:1003500000900098012846D165484030006840F080
:1003600080506349403108606248006840F4404072
:10037000604908605E48083000685D4908310860DF
:100380000846006840F4004008600846006840F4F1
:10039000A05008605848091F0860081F006840F016
:1003A0008070091F086000BF5148006800F00070AD
:1003B0000028F9D040F20570504908604C480830D8
:1003C000006820F003004A490831086008460068C8
:1003D00040F00200086000BF45480830006800F0A7
:1003E0000C000828F8D10CBD10B54548006840F451
:1003F0007000434908603E48006840F001003C49F5
:10040000086000203A4908310860394800683D49D1
:100410000840374908603C48091D0860081F00680B
:1004200020F48020091F0860002031490C31086049
:10043000FFF76CFF4FF0006031498039086010BD54
:1004400070B500200022022300240221284D083527
:100450002D6805F00C0020B1042806D0082834D1FE
:1004600007E02A4D2A4E356033E02A4D284E35608C
:100470002FE01F4D2D1D2D68C5F380541C4D2D1DE3
:100480002D6805F03F0154B1224DB5FBF1F5184E32
:10049000361D3668C6F3881605FB06F209E01B4DCB
:1004A000B5FBF1F5124E361D3668C6F3881605FB0E
:1004B00006F20F4D2D1D2D68C5F301456D1C6B0017
:1004C000B2FBF3F5124E356003E0104D104E35606F
:1004D00000BF00BF064D08352D68C5F303150E4E4D
:1004E000705D0B4D2D68C540094E356070BD000034
:1004F000003802400070004019544007003C0240A0
:1005000088ED00E0FFFFF6FE103000240024F40028
:100510000000002040787D01040000201CB501216E
:10052000292003F0E7FAC020009000208DF8040095
:1005300003208DF8050001208DF807006946324838
:1005400003F03AF80820009000208DF80400032002
:100550008DF8050001208DF8070069462B4803F04F
:100560002BF80120009002208DF8070069462848EA
:1005700003F022F81CBD10B5044614B10120254932
:1005800008702448007848B32348006850B12348D5
:10059000006838B12148001F006818B12048006881
:1005A00001281BD10A2002F0D1FE00201949087051
:1005B0001948006808B9012010BD1848006808B93A
:1005C0000220F9E71548001F006808B90320F3E787
:1005D00013480068012814D10420EDE70E48006894
:1005E00001280ED10D48006801280AD10B48001FD0
:1005F0000068012805D10A48006810B901200549A2
:1006000008700020D8E7000000140240000C0240EF
:1006100000000240140000200C8241421C82424231
:10062000000240420020FE490860091D0860091DC3
:100630000860091D0860FA4924310860091D086036
:10064000091D0860F748F649383108600020091D87
:100650000860704701460020012900D011B9F24B13
:10066000197000E0262070470146ED4A121D1068FF
:1006700020F0FF0008431060704770B5044606E0A4
:10068000E7483430056805F0450000B100E0F7E7C1
:1006900000BF042004F0B4F820B1042004F0BBF83B
:1006A000032070BD012004F0ABF820B1012004F05C
:1006B000B2F80120F5E7DA4810300068A04201D016
:1006C0001020EEE740F2FF5004F0A5F8D4481430B3
:1006D000006808210840C0B2E3E72DE9FC41074665
:1006E0000D46002600240020009001900820CF49EC
:1006F000086010204860402088600020C8604FF4E7
:1007000080600861084603F0E8FF1020FFF7B5FF9E
:10071000044614B12046BDE8FC81C54800880004A9
:10072000C249086037204860402088600020C860C7
:100730004FF480600861084603F0CFFF3720FFF7D1
:100740009CFF04460CB12046E5E74FF0FF30B94965
:10075000086008204860302088600220C8600020BF
:10076000086101204861084603F0E3FF0020AF491B
:10077000086033204860402088600020C8604FF443
:1007800080600861084603F0A8FF3320FFF775FF7B
:1007900004460CB12046BEE70DE04FF4001004F013
:1007A0002FF840B19E48803000684DF82600761C36
:1007B000022E00D307E09A483430006840F22A61E4
:1007C00008400028E9D000BF082004F019F820B143
:1007D000082004F020F804209DE7022004F010F81F
:1007E00020B1022004F017F8022094E7202004F042
:1007F00007F820B1202004F00EF806208BE74FF414
:10080000007003F0FDFF28B14FF4007004F003F80E
:10081000072080E740F2FF5003F0FDFF009800063C
:10082000009901F47F4140EA0120009901F47F0121
:1008300040EA1120009940EA1160686001980006C2
:10084000019901F47F4140EA0120019901F47F01FF
:1008500040EA1120019940EA1160286020465AE7D9
:100860007CB50546002400200090019000260DB1C3
:10087000022600E000266A481430006800F000708C
:1008800008B10E207CBD6A49098888B26946FFF725
:1008900024FF04460CB12046F4E7019800F48020C0
:1008A00060B36348008800046049086037204860EE
:1008B000402088600020C8604FF4806008610846CE
:1008C00003F00BFF3720FFF7D8FE04460CB120469B
:1008D000D8E75648066006205449486040208860A2
:1008E0000020C8604FF480600861084603F0F5FE00
:1008F0000620FFF7C2FE04462046C3E72520C1E7D5
:1009000070B5044600254C480078032802D12725FD
:10091000284670BD4848007838B14748007801281B
:1009200003D045480078022819D1B4F5805F02D180
:1009300027252846EDE7E0B2FFF792FF054675B997
:100940003748001D006820F4C0503549091D086073
:10095000084600682043086008460068086028468A
:10096000D7E710B504463148046007202F49486096
:10097000402088600020C8604FF48060086108460D
:1009800003F0ABFE0720FFF778FE10BDF0B501467F
:1009900000200022284B1B7881F85630244B1B88FE
:1009A000A1F85430254B1B681A0E93090B70C2F343
:1009B00083034B7002F003038B70204B1B68C3F35F
:1009C0000742CA701D4B1B88C3F307220A711B4BD9
:1009D0001A784A715B681A0E1301CB80174B5B685B
:1009E000C3F30742CB8843EA1213CB8002F00F0314
:1009F0000B72124B9B88C3F30722D3094B72C2F3CD
:100A000080138B72C2F34013CB72C2F300130B73CB
:100A100000234B73084B1B78C3B1074B1B780FE0C7
:100A2000002C0140FF07C00020000020900C002097
:100A30001C000020A40C002018000020BC0C00208A
:100A4000012B03D0FE4B1B78032B4FD193071B0DBB
:100A50000B61FC4B1A790B6943EA82030B61F94B7A
:100A60009B681A0E0B6943EA92130B61C2F3C2032F
:100A70000B7502F007034B75F24B9B68C3F30742FB
:100A800053098B75C2F38203CB7593075B0F0B760B
:100A9000EC4B1B89C3F307220B7E43EAD2130B7680
:100AA0000B695B1C0024C1E912340B7E9B1C0124E2
:100AB00004FA03F3DC17D1E91256A5FB037C06FB0D
:100AC00003C305FB0433C1E912730C7A0123A3406D
:100AD0000B650024D1E912650B6DA6FB037C05FBB9
:100AE00003C306FB0433C1E912732EE0D44B1B7819
:100AF000022B2AD1D34B1A7993069B0A0B61D14B57
:100B00009B681A0E0B6943EA02230B61CD4B9B686D
:100B1000C3F307420B6913430B61CA4B1B89C3F331
:100B200007220B695B1C4FF40074A3FB04464FF4CF
:100B300080630025A4FB037C06FB03C304FB053391
:100B4000C1E912734FF400730B65C2F3801301F80F
:100B5000193F93065B0E4B70BA4B1A7A4B7843EAF7
:100B6000D2134B7002F07F038B70B64BDB681A0E0A
:100B7000D309CB70C2F341130B71C2F382034B71E3
:100B800093071B0F8B71AF4BDB68C3F307428B7965
:100B900043EA92138B71C2F34013CB7100230B72A3
:100BA00002F001034B72A74B9B89C3F30722D309C1
:100BB0008B72C2F38013CB72C2F340130B73C2F378
:100BC00000134B73C2F381038B7302F00303CB73E7
:100BD0009C4B1A7B53080B7401234B749A4B1B6874
:100BE0001A0ECA741939984B1B68C3F307421402D2
:100BF000CC85954B1B88C3F30722CB8D1343CB8544
:100C0000914B1A7814060C635B681A0E0B6B43EA5F
:100C100002440C638C4B5B68C3F307420B6B43EAE3
:100C200002240C63884B9B88C3F307220B6B13438E
:100C30000B63854B1A7934235A54834B9B681A0EE5
:100C400035235A54804B9B68C3F3074214068C63C8
:100C50007D4B1B89C3F307228B6B43EA02448C63F1
:100C6000794B1A7A8B6B43EA02248C63764BDB68F0
:100C70001A0E8B6B13438B63734BDB68C3F3074212
:100C80003C235B5C43EA12143C235C5413071C0DA9
:100C9000CC876D4B9B89C3F30722CB8F1343CB8744
:100CA000694B1A7B540840235C54012441235C5453
:100CB000F0BD70B500264FF4803505E06348046848
:100CC00004F0450000B103E0281EA5F10105F5D1AF
:100CD00000BF15B104F0040028B10326042003F07E
:100CE0009AFD304670BD012003F08AFD18B101263F
:100CF000012003F090FD40F2FF5003F08CFD3046E0
:100D0000F0E72DE9F04105460E464FF0000805E0FA
:100D10004E48076807F0450000B100E0F8E700BF63
:100D2000042003F06DFD28B1042003F074FD0320BE
:100D3000BDE8F081012003F063FD20B1012003F044
:100D40006AFD0120F4E7414824380068A84201D038
:100D50001020EDE740F2FF5003F05DFD3B482038E6
:100D6000046804F4604018B9200C30804046DFE786
:100D700004F4005008B11320DAE704F4804008B10D
:100D80001020D5E704F4004008B10F20D0E740461A
:100D9000CEE738B500240120009003F098FC10B98C
:100DA0002524204638BD26480078042825D0002078
:100DB0002749086002204860C02088600020C86081
:100DC0004FF480600861084603F087FCFFF771FF6D
:100DD00004460CB12046E5E71C48203800681A4953
:100DE00008601A481C3800684860184818380068BD
:100DF0008860164814380068C8601148007858B1F7
:100E00000F480078012807D00D480078062803D045
:100E10000B480078022821D100200D4908600320EA
:100E20004860402088600020C8604FF480600861FE
:100E3000084603F052FC69460320FFF762FF09E011
:100E400018000020BC0C0020CC0C0020342C0140E9
:100E5000900C002004460CB12046A3E7FE48007821
:100E6000032816D1BDF800000004FC4908600320E7
:100E70004860402088600020C8604FF480600861AE
:100E8000084603F02AFCFFF714FF04460CB1204685
:100E900088E7F148007804282AD0BDF80000F0491E
:100EA0000860BDF800000004EC49086009204860B3
:100EB000C02088600020C8604FF480600861084648
:100EC00003F00BFCFFF7F5FE04460CB1204669E782
:100ED000E4480068E4490860E248001D0068486092
:100EE000E048083000688860DE480C300068C86060
:100EF000002057E710B506E0DA482030046804F017
:100F0000450000B100E0F7E700BF042003F078FCE3
:100F100020B1042003F07FFC032010BD40F2FF50FD
:100F200003F079FC0020F8E770B500264FF4803517
:100F300006E0CC482030046804F0450000B103E02E
:100F4000281EA5F10105F4D100BF15B104F004007D
:100F500028B10326042003F05EFC304670BD04F087
:100F6000400018B10026402003F055FC3046F5E75C
:100F700070B500254FF4803404E0802003F040FC7D
:100F800000B103E0201EA4F10104F6D100BF0CB9AA
:100F9000032070BD40F2FF5003F03DFC2846F8E707
:100FA0002DE9F0470027002400260025A046A14691
:100FB0007620AE4908750020086048608860C860E7
:100FC0000861084603F05FFB032003F07CFBA548A3
:100FD0001038006840F48070A2491039086000BFE2
:100FE00012E000209D49086048608860C8604FF4A6
:100FF00080600861084603F070FBFFF7B9FF044604
:1010000004B903E0781CC7B24A2FEADB00BF14B171
:101010002046BDE8F0874FF4D5709049086008205D
:101020004860402088600020C8604FF480600861FC
:10103000084603F052FBFFF777FF044624B901206E
:10104000854908704FF080490020844908603720A6
:101050004860402088600020C8604FF480600861CC
:10106000084603F03AFB3720FFF707FB0446002C45
:101070004BD134E000207949086037204860402097
:1010800088600020C8604FF480600861084603F063
:1010900024FB3720FFF7F1FA04460CB12046B8E7ED
:1010A000734849EA00006D490860292048604020E3
:1010B00088600020C8604FF480600861084603F033
:1010C0000CFBFFF717FF04460CB12046A1E765486B
:1010D0000668012080EAD67080F001086D1CB8F126
:1010E000000F03D14FF6FF708542C3D34FF6FF7058
:1010F000854202D31B2420468BE706F08040061E63
:1011000032D00220544908702EE01CE0594853495F
:10111000086001204860402088600020C8604FF4CB
:1011200080600861084603F0D8FAFFF7E3FE044642
:101130000CB120466DE74B480668012080EAD67066
:1011400080F001086D1CB8F1000F03D14FF6FF705D
:101150008542DBD34FF6FF70854202D31B24204625
:1011600057E703203C490870204652E73EB500246B
:1011700000250121404802F0BDFC0121C80202F017
:1011800013FD0121C80202F064FD4FF4F8500190F4
:1011900002208DF808008DF8090000208DF80A0063
:1011A00001208DF80B0001A9344802F005FA042053
:1011B000019001A9324802F0FFF90C2208212F48C2
:1011C00002F085FA0C2209212C4802F080FA0C2248
:1011D0000A212A4802F07BFA0C220B21274802F050
:1011E00076FA0C221146254802F071FA0C220221EF
:1011F000234802F06CFA00214FF4006002F029FD50
:10120000FFF710FA31208DF8000000208DF8010062
:101210008DF8020001208DF80300684602F0DBF82B
:10122000FFF7BEFE044614B9FFF7B3FD04461CB930
:101230001448FFF7ABFB044634B91249B1F8541017
:101240000804FFF78EFB044624B94FF40060FFF753
:1012500057FB0446E4B117E018000020900C002072
:101260001C000020142C0140BC0C0020780C002035
:10127000000010800080FF800C0040000008024049
:10128000000C0240E00C0020FE480078032812D138
:10129000FD4890F8560020B1FB4890F85600012810
:1012A00001D1022500E000252846FFF7DDF90020E6
:1012B000FFF7D0F9044620463EBD10B5002003F0EC
:1012C00002FA002010BD70B590B004460E461546D7
:1012D00000BFEE4803F0E3FB0028FAD1EB4803F02F
:1012E000B5FA4FF000600190E9480290039404952C
:1012F0000020059006904FF48060079080000890D1
:101300008000099000200A904FF440300B90042098
:101310000C9003200D904FF400000E9080100F9061
:1013200001A9DA4803F034FB2021D84803F080FB00
:101330000121D64803F066FB10B070BD01460020C5
:1013400002E04910421CD0B20129FAD170472DE9C0
:10135000F84F8146174698460A9C4FF0000AD3463C
:101360004D464FF0FF36B9F1000F02D12620BDE8FF
:10137000F88F0020C64954390860C2480078022816
:1013800005D10402780A40EAC8574FEA68280020CD
:10139000C04988604860401E086001204861002004
:1013A000C8600861084603F0C4F9B9486C380068A1
:1013B00000F0007008B10E20D9E7002C21DDB4F553
:1013C000006F1EDC601E2040D8B92046FFF7B6FF34
:1013D0000090B14804601020AF4948604020886008
:1013E0000020C8604FF480600861084603F075F97A
:1013F0001020FFF742F98246BAF1000F03D05046A1
:10140000B5E72620B3E700980001A24988600846A6
:1014100044604FF0FF300860012048610220C8603E
:1014200000200861084603F084F99B4807601120FA
:1014300099494860402088600020C8604FF480606F
:101440000861084603F049F91120FFF716F98246B2
:10145000BAF1000F01D0504689E790480078002883
:101460005AD1FEF712FF17E04FF4004003F0C8F91D
:1014700070B14FF0000B05E08548006845F82B007F
:101480000BF1010BBBF1080FF6D32035844E03E0BE
:101490000EB904206BE7761E7D484C38006840F298
:1014A0002A6108400028DFD0082003F0A9F920B104
:1014B000082003F0B0F9042059E7022003F0A0F956
:1014C00020B1022003F0A7F9022050E7202003F00A
:1014D00097F920B1202003F09EF9062047E74FF44A
:1014E000007003F08DF928B14FF4007003F093F908
:1014F00007203CE703E06648006828602D1D4FF494
:10150000001003F07DF90028F5D1FEF7C0FE40F28F
:10151000FF5003F080F939E060480078012835D1A8
:101520000020604908706049087060490870584898
:101530004438006840F22A3108435549443908606C
:1015400053485438006840F0080051495439086045
:10155000002221464846FFF7B6FE00E0761E4B48C3
:101560005838006800F0006038B95048007820B959
:101570004C48007808B9002EF0D10EB90420F6E6E8
:101580004848007810B1474890F800A05046EEE671
:101590002DE9FF5F17469846DDE90E464FF000093A
:1015A000CA464FF0FF35424900980860002038498C
:1015B0005439086033480078022805D10402780ABB
:1015C00040EAC8574FEA68280020324988604860DE
:1015D000401E0860012048610020C860086108467C
:1015E00003F0A7F82A486C38006800F0007018B1C2
:1015F0000E2004B0BDE8F09F002C21DDB4F5006F93
:101600001EDC601E2040D8B92046FFF797FE8346B7
:101610002148046010202049486040208860002054
:10162000C8604FF480600861084603F056F8102047
:10163000FFF723F88146B9F1000F03D04846D8E7F9
:101640002620D6E7012E6ED906FB04F0B0F1007F0C
:1016500001D32620CDE74FEA0B100E49886006FB28
:1016600004F048604FF0FF3008600120486102201C
:10167000C86000200861084603F05BF80648076070
:10168000122017E018000020E00C002058640240EF
:10169000802C0140A40C0020900C00202000002091
:1016A000FFFF7F00220000202100002023000020F7
:1016B00024000020F9494860402088600020C8606C
:1016C0004FF480600861084603F007F81220FEF727
:1016D000D4FF8146B9F1000F01D0484689E7F048B0
:1016E000007800287ED1FEF7D0FD1EE04FF40040C8
:1016F00003F086F8A0B14FF0000A07E0E94800685F
:10170000E949096841F82A000AF1010ABAF1080F0B
:10171000F4D3E54800682030E3490860E34D04E075
:1017200015B9042065E7AEE06D1EDE484C38006850
:1017300040F22A3108400028D8D0082003F060F891
:1017400020B1082003F067F8042052E7022003F0DC
:1017500057F820B1022003F05EF8022049E720206C
:1017600003F04EF820B1202003F055F8062040E7A2
:101770004FF4007003F044F828B14FF4007003F008
:101780004AF8072035E709E0C6480068C6490968F5
:101790000860C5480068001DC34908604FF4001088
:1017A00003F02EF80028EFD14FF4807003F028F8F2
:1017B00020B3BF48007838B1BD480078012803D075
:1017C000BB480078022819D10020B44908600C20D9
:1017D0004860402088600020C8604FF48060086145
:1017E000084600E011E002F078FF0C20FEF745FF0C
:1017F0008146B9F1000F01D04846FAE6FEF747FDF1
:1018000040F2FF5003F007F83DE0A54800780128BA
:1018100039D10020A74908700120A749087000208D
:10182000A64908709F484438006840F22A310843AE
:101830009C49443908609B485438006840F00800CF
:1018400098495439086006FB04F100220098FFF71C
:101850003AFD00E06D1E9A48006800F0006008B98B
:10186000002DF7D10DB90420C3E600BF93480078DE
:1018700018B9904800780028F8D08E48007810B148
:101880008C4890F800904846B3E61CB5044600200A
:10189000019000908B4800880004804908600D206A
:1018A0004860402088600020C8604FF48060086174
:1018B000084602F012FF7B484C380068009003E0B5
:1018C00078484C3800680090009800F045000028E7
:1018D000F6D0012002F094FF20B1012002F09BFF1E
:1018E00001201CBD042002F08BFF20B1042002F077
:1018F00092FF0320F5E76B48703800680D2801D08F
:101900001020EEE740F2FF5002F085FF65486C388A
:10191000006801900198C0F3432020700020E0E7A8
:101920002DE9FF5F86B017469846149D00260020DB
:101930000590049000248146039082460290019510
:10194000DDF818B0DDF818B0BBF1000F03D1262088
:101950000AB0BDE8F09F00205249543908605A4946
:1019600088604860401E0860012048610020C8600F
:101970000861084602F0DDFE4A486C38006800F055
:10198000007008B10E20E3E749480078022805D12D
:101990000502780A40EAC8574FEA6828002D1FDD83
:1019A000B5F5006F1CDC681E2840C8B92846FFF753
:1019B000C5FC059039480560102038494860402032
:1019C00088600020C8604FF480600861084602F01B
:1019D00084FE1020FEF751FE06461EB13046B7E7E2
:1019E0002620B5E73748008800042C4908600D2000
:1019F0004860402088600020C8604FF48060086123
:101A0000084602F06AFE0D20FEF737FE06460EB1CC
:101A100030469DE723486C38006803904FF0FF3450
:101A20001CE0641E2748008800041C4908600D2043
:101A30004860402088600020C8604FF480600861E2
:101A4000084602F04AFE0D20FEF717FE06460EB1CC
:101A500030467DE713486C3800680390039800F423
:101A6000807008B9002CDCD10CB9292070E70B4834
:101A70000760182009494860402088600020C8603D
:101A80004FF480600861084602F027FE1820FEF738
:101A9000F4FD0646D6B130465AE70000900C00200F
:101AA00020000020802C014024000020FFFF7F0048
:101AB0001800002022000020210000202300002028
:101AC000006402401C000020A40C00200020F84903
:101AD000087005980001F7498860084645604FF096
:101AE000FF300860012048610020C8600861084696
:101AF00002F01FFE4FF0FF34EF48007800287CD141
:101B0000FEF7C3FB43E04FF4804002F079FEC8B318
:101B10000198A0EB0900202821D20198A0EB090030
:101B200000F0030020B90198A0EB0900800804E050
:101B30000198A0EB09008008401C02904FF0000AB9
:101B400009E0DE49DBF8000008600AF1010A0BF148
:101B5000040B09F1040902988245F2D30FE04FF01B
:101B6000000A05E05BF82A00D44908600AF1010A7E
:101B7000BAF1080FF6D30BF1200B09F120096FF031
:101B8000404404E0FFE70CB90420E1E6641ECB48C2
:101B90004C38006840F21A6108400028B3D0082091
:101BA00002F02EFE20B1082002F035FE0420CFE620
:101BB000022002F025FE20B1022002F02CFE0220BD
:101BC000C6E6102002F01CFE20B1102002F023FE19
:101BD0000520BDE64FF4007002F012FE30B14FF464
:101BE000007002F018FE0720B2E606E0FEF74FFB99
:101BF00040F2FF5002F00FFE43E0AF4800780128AA
:101C00003FD10020AE490870A9490870AD4908705D
:101C1000AA484438006840F21A310843A7494439B9
:101C20000860402229460698FFF74DFBA348543828
:101C3000006840F00800A1495439086000E0641EC3
:101C4000A148006800F0006008B9002CF7D11CB969
:101C5000FFF78CFA04207BE64FF0FF3400E0641EAF
:101C60009848007820B99648007808B9002CF6D139
:101C70000CB904206CE69248007810B190480078C6
:101C800066E640F2FF5002F0C6FD04A8FFF7FDFD36
:101C9000064603E004A8FFF7F8FD06463EB99DF8A6
:101CA00010000728F6D09DF810000628F2D0304624
:101CB0004EE62DE9FF5F84B0DDE9124700260020E3
:101CC00003900290002580468146019007FB04FBAB
:101CD000DDF810A0DDF810A0BAF1000F03D1262026
:101CE00008B0BDE8F09F002074495439086071497C
:101CF00088604860401E0860012048610020C8607C
:101D00000861084602F015FD6C486C38006800F068
:101D1000007008B10E20E3E76C480078022808D173
:101D20000402DDE90601400A40EAC1504912CDE94A
:101D30000601002C1FDDB4F5006F1CDC601E204086
:101D4000C8B92046FFF7FAFA0390614804601020F2
:101D50005F494860402088600020C8604FF4806080
:101D60000861084602F0B9FC1020FEF786FC064622
:101D70001EB13046B4E72620B2E7012F6FD907FB2A
:101D800004F0B0F1007F01D32620A9E74F48007886
:101D900038B14E480078012803D04C48007802281A
:101DA0002DD14C480088000449490860372048601C
:101DB000402088600020C8604FF4806008610846B9
:101DC00002F08BFC3720FEF758FC06460EB1304679
:101DD00086E73F48076017203D49486040208860FB
:101DE0000020C8604FF480600861084602F075FC6E
:101DF0001720FEF742FC06460EB1304670E7344924
:101E00000698086019204860402088600020C8605B
:101E10004FF480600861084602F05FFC1920FEF76D
:101E20002CFC06460EB130465AE7039800012149C2
:101E3000886007FB04F048604FF0FF300860012025
:101E400048610020C8600861084602F072FC1A4828
:101E50000078002872D1451EFEF717FA54E0F8E02A
:101E60004FF4804002F0CCFCB0B3ABEB080020286C
:101E700033D2ABEB080000F0030018B9ABEB08005D
:101E8000800803E0ABEB08008008401C01904FF095
:101E9000000909E00949DAF80000086009F10109C0
:101EA0000AF1040A08F1040801988145F2D324E0FC
:101EB00021000020A40C002020000020802C0140E4
:101EC00022000020230000200064024018000020AF
:101ED000900C00201C00002012E04FF0000905E0EB
:101EE0005AF82900F749086009F10109B9F1080F0A
:101EF000F6D30AF1200A08F120086FF0404503E00C
:101F00000DB90420ECE66D1EEE484C38006840F236
:101F10001A3108400028A3D0082002F071FC20B13B
:101F2000082002F078FC0420DAE6022002F068FCC7
:101F300028B1022002F06FFC0220D1E640E0102020
:101F400002F05EFC20B1102002F065FC0520C7E61F
:101F50004FF4007002F054FC28B14FF4007002F00E
:101F60005AFC0720BCE64FF4807002F049FC00B335
:101F7000D548007838B1D4480078012803D0D24839
:101F80000078022815D10020D04908600C20486054
:101F9000402088600020C8604FF4806008610846D7
:101FA00002F09BFB0C20FEF768FB06460EB13046A4
:101FB00096E6FEF76CF940F2FF5002F02CFC48E088
:101FC000C3480078012844D10020C249087001208C
:101FD000C14908700020C1490870BA4844380068F7
:101FE00040F21A310843B7494439086007FB04F14D
:101FF00040220498FFF767F9B2485438006840F06F
:102000000800B049543908604FF0FF3500E06D1EFC
:10201000B348006800F0006008B9002DF7D11DB981
:10202000FFF7A4F804205BE64FF0FF3500E06D1EDB
:10203000AA48007820B9A748007808B9002DF6D141
:102040000DB904204CE6A348007810B1A1480078EF
:1020500046E640F2FF5002F0DEFB02A8FFF715FC57
:10206000064603E002A8FFF710FC06463EB99DF8BD
:1020700008000728F6D09DF808000628F2D0304660
:102080002EE610B54FF4807002F0BAFB88B3924888
:102090000078012814D100208C4908600C20486089
:1020A000402088600020C8604FF4806008610846C6
:1020B00002F013FB0C20FEF7E0FA8649087002E0FC
:1020C0000020844908707F484838006840F48070D8
:1020D0007C4948390860081D00684CF23A31884351
:1020E00078494439086001207C49087079480078B3
:1020F00010BDFFE7022002F083FB78B1022002F05E
:102100008AFB7048443800684CF23A3188436D4984
:102110004439086002206F490870E9E7082002F09E
:102120006FFB78B1082002F076FB664844380068FF
:102130004CF23A31884363494439086004206549C8
:102140000870D5E7202002F05BFB78B1202002F078
:1021500062FB5C48443800684CF23A318843594984
:102160004439086006205B490870C1E7102002F07E
:1021700047FB78B1102002F04EFB5248443800680B
:102180004CF23A3188434F4944390860052051499F
:102190000870ADE74FF4007002F032FB80B14FF4ED
:1021A000007002F038FB4748443800684CF23A317E
:1021B000884344494439086007204649087097E736
:1021C000002095E710B5FFF75CFF10BD70B5044621
:1021D000002514B92625284670BD42480088000411
:1021E0003A4908600D204860402088600020C8609F
:1021F0004FF480600861084602F06FFA0D20FEF788
:102200003CFA05460DB12846E6E72E486C380068D2
:1022100020602846E0E708B5002000906846FFF7F8
:10222000D5FF08B1FF2008BD0098C0F34320FAE7AE
:102230002DE9FE4F83460C46914600200290002671
:1022400025462C46700240EAD5566D020BF003007D
:10225000F0B14FF0000A18E04FF4007000904FEA20
:102260004A20471946EBE0733A461F48FFF76FF8DC
:1022700002904FF400721C49584610F000FC0BF518
:10228000007B0AF1010000F0FF0ACA45E4DB16E01A
:10229000B9F1010F09D14FF400702A46334600907E
:1022A0005846FFF754F8029009E04FF400702A46B0
:1022B0003346CDE900095846FFF76AF902900298C3
:1022C000BDE8FE8F802C014018000020900C0020FB
:1022D00020000020220000202100002023000020F8
:1022E000006402401C000020380D00202DE9FE4F44
:1022F00081460C46924600200290002625462C4638
:10230000700240EAD5566D0209F00300F0B14FF0BB
:10231000000B18E04FF400724946194810F0AFFB6B
:102320004FF4007000904FEA4B20471946EBE073E2
:102330003A461348FFF7F4FA029009F500790BF1D9
:10234000010000F0FF0BD345E4DB16E0BAF1010F0A
:1023500009D14FF400702A46334600904846FFF7F3
:10236000DFFA029009E04FF400702A463346CDE9C7
:10237000000A4846FFF79DFC02900298BDE8FE8FD8
:10238000380D00201CB50121222001F0B3FB0520EF
:10239000009001208DF8040000208DF80600032035
:1023A0008DF8050001208DF807006946A04801F06E
:1023B00003F94FF44070009001208DF804000020D4
:1023C0008DF8060003208DF8050001208DF8070028
:1023D0006946984801F0F0F801209749086097494C
:1023E000C1F8A402964908601CBD10B501209449AB
:1023F00008609048006820F440208E490860084634
:10240000006840F48020086001208C49C1F8A402D3
:1024100089490860042000F051FF00208749C1F875
:10242000A402042000F04AFF00208349086010BD88
:1024300010B50120824908607E48006820F44020E1
:102440007C4908600846006840F48020086000204D
:102450007A49C1F8A0027849091D0860042000F0FB
:102460002DFF012074490860091D0860042000F058
:1024700025FF10BD10B500240020714908606D488B
:10248000006820F440206B49086008460068086036
:1024900001206A49C1F8A40200F010FF012066493A
:1024A000086000F00BFF07E0601CC4B2FA2C03DDEB
:1024B000FFF7BEFF012010BD5F487C380068002890
:1024C000F2D101205E49086000205C49C1F8A002F9
:1024D00000BFF0E710B500205749086001205949B6
:1024E000C1F880025348006820F440205149086038
:1024F0000846006840F48020086000204E49091D0D
:102500000860022000F0DAFE01204C49C1F8A00268
:10251000022000F0D3FE00204749086010BD10B52E
:1025200000204549086001204649C1F88002414821
:10253000006820F440203F4908600846006840F4E5
:102540008020086001203C49091D0860022000F03D
:10255000B5FE01203949C1F8A002022000F0AEFE0C
:1025600000203549086010BD70B50446012034498B
:1025700008603048006820F440202E490860084672
:10258000006840F48020086000202C49C1F8A002B7
:10259000002517E0E0092849091D08606006040EBF
:1025A000022000F08BFE01202449C1F8A002022085
:1025B00000F084FE002020490860022000F07EFE2A
:1025C000681CC5B2082DE5DB70BD70B5054600245A
:1025D00000201B4908601748006820F44020154976
:1025E0000860084600680860002616E000201249CE
:1025F0000860022000F062FE01201049C1F8A0022C
:102600006006040E0C487C38006808B1601CC4B237
:10261000012000F053FE701CC6B2082EE6DB15B98F
:10262000FFF77DFF01E0FFF755FF204670BD00007A
:102630000014024000040240A08240420080404258
:1026400080824242008042421CB50121272001F0D5
:1026500051FA0820009001208DF8040000208DF828
:10266000060003208DF8050000208DF8070069465C
:10267000FE4800F0A1FF2820009002208DF8040001
:1026800000208DF8060003208DF8050001208DF84C
:1026900007006946F64800F08FFF4FF400400090B5
:1026A00002208DF8040000208DF8060003208DF82C
:1026B000050001208DF807006946EE4800F07CFF18
:1026C0008020009002208DF8040000208DF8060084
:1026D00003208DF8050001208DF807006946E648C3
:1026E00000F06AFF06220F21E24800F0F0FF062208
:1026F0000521DF4800F0EBFF06220321DC4800F053
:10270000E6FF06220721DC4800F0E1FF0121062058
:1027100001F0F0F94FF44050009002208DF80400D1
:1027200000208DF8060003208DF8050001208DF8AB
:1027300007006946CE4800F03FFF4C200090022081
:102740008DF8040000208DF8060003208DF80500A8
:1027500001208DF807006946C74800F02DFF0522CB
:102760000C21C34800F0B3FF05220D21C04800F042
:10277000AEFF05220321C04800F0A9FF0522062173
:10278000BD4800F0A4FF06220221BB4800F09FFFD5
:102790000020BA4908601CBD2DE9FF4104460F46E0
:1027A00015461E460121C80301F0EDF90121C803B9
:1027B00001F03EFA00214FF4004001F039FAADF883
:1027C0000070ADF80240ADF804600020ADF80600DE
:1027D00002200290ADF80C506946A94801F072FD44
:1027E00001220221A64801F0E8FE0121A44801F0DF
:1027F00051FEBDE8FF812DE9FF4104460F46154615
:102800001E460121880301F0BEF90121880301F071
:102810000FFA00214FF4804001F00AFAADF8007081
:10282000ADF80240ADF804600020ADF806000220CB
:102830000290ADF80C506946924801F043FD012228
:102840000221904801F0B9FE01218E4801F022FEDC
:10285000BDE8FF8170B50546002400260A20B5FBBF
:10286000F0F500BF09E004EB8400874931F810005F
:10287000A84200D103E0601CC4B20B2CF3D300BF0C
:10288000002001F008F80B2C01D1012070BD04EBF1
:1028900084027D4B03EB4202918804EB840203EB3C
:1028A0004202508800F0F0FF7848006840F08060F5
:1028B0007649086000BF7548006800F00060002895
:1028C000F9D004EB8400704901EB4000C68804EBAA
:1028D000840001EB4000008946EA002646F40076B9
:1028E000684920310E800020D0E770B505460024ED
:1028F00000260A20B5FBF0F500BF09E004EB8400D8
:10290000614931F81000A84200D103E0601CC4B254
:102910000B2CF3D300BF002000F0BDFF0B2C01D126
:10292000012070BD04EB8402574B03EB42029188F7
:1029300004EB840203EB4202508800F0A5FF5348E9
:10294000006840F080605149086000BF4F4800684F
:1029500000F000600028F9D004EB84004A4901EB44
:102960004000C68804EB840001EB4000008946EA81
:10297000002646F40076424920310E800020D0E740
:1029800070B590B004460E4615460121480501F089
:10299000B1F83F4801F05AFF00BF3D4802F07FF810
:1029A0000028FAD1009037480C3001900294402062
:1029B00003900495002005904FF48060069040003D
:1029C0000790800008904011099040020A90002072
:1029D0000B900C900D900E9069462D4801F0D8FF99
:1029E000002231462A4802F034F80121284802F03A
:1029F0003CF801221021264802F091F80F208DF8B2
:102A00003C0000208DF83D008DF83E0001208DF83F
:102A10003F000FA800F0DFFC10B070BD70B590B0A3
:102A200004460E4615460121480501F063F8184892
:102A3000183001F00BFF00BF1548183002F02FF8D6
:102A40000028F9D100900E480C30019002944020EB
:102A500003900495002005904FF48060069040009C
:102A60000790800008904011099013E00014024084
:102A70000004024000000240000802408C824242F2
:102A8000003C004000380040CA35010800380240D0
:102A90007060024040020A9000200B900C900D9054
:102AA0000E906946474801F073FF002231464548C1
:102AB00001F0CFFF0121434801F0D7FF012210218F
:102AC000404802F02CF810208DF83C0000208DF8D2
:102AD0003D008DF83E0001208DF83F000FA800F06A
:102AE0007AFC10B070BD10B53749364802F034F8A2
:102AF000012806D13449334802F058F833480068B9
:102B0000804710BD10B532492E48183802F024F81D
:102B1000012807D12E492B48183802F047F82B48D6
:102B20000068804710BD10B50446012C0ED0022C61
:102B300002D0032C1BD115E00121224801F062FFD5
:102B400001212048183801F05DFF11E001202149E2
:102B500008601C488838D0F8880040F00100194906
:102B6000086005E00121174801F04CFF00E000BFBC
:102B700000BF10BD10B50446012C0ED0022C02D0AF
:102B8000032C1BD115E000210E4801F03BFF002172
:102B90000C48183801F036FF11E00A48006820F0B0
:102BA000010008498839C1F88800002009490860F7
:102BB00005E00021034801F025FF00E000BF00BF51
:102BC00010BD00008860024000880020280000201E
:102BD000208000208C82424270B504460D46FFF7EB
:102BE00004FC2020FFF7C0FCFFF744FC08B10120E3
:102BF00070BDE0B2FFF7B8FCFFF73CFC08B1022063
:102C0000F6E7E8B2FFF7B0FCFFF734FC08B10320A9
:102C1000EEE7FFF70DFC644820F814500020E7E7CA
:102C200070B504460025102C06D0142C0AD0182CA0
:102C30000ED0202C18D111E001210020FFF7CCFF8D
:102C4000054611E003210020FFF7C6FF05460BE013
:102C500007210020FFF7C0FF054605E00B210020FB
:102C6000FFF7BAFF054600BF00BF284670BD70B52C
:102C7000044600254DF25430844205D22221012021
:102C8000FFF7AAFF054617E04DF25430844208D9F9
:102C90004648844205D92A210120FFF79DFF0546B9
:102CA0000AE04348844207D94248844204D2322190
:102CB0000120FFF791FF0546284670BD70B5044618
:102CC0000025012C05D180210220FFF785FF054654
:102CD00004E000210220FFF77FFF0546284670BD73
:102CE00070B504460025102C06D0142C0AD0182CE0
:102CF0000ED0202C18D111E000210846FFF76CFF00
:102D0000054611E002210020FFF766FF05460BE0B3
:102D100006210020FFF760FF054605E00A2100209C
:102D2000FFF75AFF054600BF00BF284670BD2DE9DA
:102D3000F04105460C4616460027B8461E4804706A
:102D40001E4805702846FFF7B9FF07462046FFF7E3
:102D500067FF07463046FFF78AFF074616480078A8
:102D600017490978884205D114480078154909782F
:102D7000884208D010480078114908700846007849
:102D8000FFF7AEFF07463846BDE8F08110B5FFF704
:102D9000F9FA4AF6444210210020FFF7C8FF10203C
:102DA000FFF79EFF002010BD2C000020E0A50100D1
:102DB000C0D40100C04B03002E00002030000020D2
:102DC0002F0000203100002070B504460E46002080
:102DD000DB4908601EB9DA490839086003E00120C0
:102DE000D7490839086000251AE004F0800020B1B6
:102DF0000120D3490C39086003E00020D0490C3988
:102E000008600020CE49103908606006040E0120D9
:102E100000F054FA0120CB49C1F8AC02681CC5B2DD
:102E2000082DE2DB0120C649086070BD10B5002105
:102E30000C20FFF7C9FF00218020FFF7C5FF002409
:102E400004E001210020FFF7BFFF641CB4F5FC7F04
:102E5000F7D310BD1CB50121102000F04BFE4FF43C
:102E60007840009001208DF8040000208DF80600C5
:102E70008DF8050001208DF807006946B24800F082
:102E80009BFB0020AE49091F0860012000F016FAE4
:102E90000120AC49C1F8B80200212120FFF794FFBE
:102EA0000021C820FFF790FF00210620FFF78CFFCC
:102EB00000211320FFF788FF00212020FFF784FF67
:102EC000FFF7B4FF00210C20FFF77EFF1CBD70B59B
:102ED0000446A4F12000C4B200250AE004EB44013A
:102EE0009A4A02EB4101485D0121FFF76DFF681C22
:102EF000C5B2062DF2DB70BD70B504460D4645F037
:102F000040000021FFF760FF44F080000021FFF740
:102F10005BFF70BD70B505460E4614463146284627
:102F2000FFF7EAFF03E02078FFF7D1FF641C207869
:102F30000028F8D170BD70B5044621460020FFF787
:102F4000DBFF002505E001210020FFF73DFF681CA5
:102F5000C5B2542DF7DB70BD2DE9F04107460E4692
:102F6000154631463846FFF7C7FF002405E0285DC7
:102F70000121FFF729FF601CC4B2102CF7DB701C85
:102F8000C1B23846FFF7B8FF102405E0285D0121E3
:102F9000FFF71AFF601CC4B2202CF7DBBDE8F081FC
:102FA0002DE9F04107460E46154631463846FFF7F3
:102FB000A3FF002405E0285D0121FFF705FF601C49
:102FC000C4B20E2CF7DB701CC1B23846FFF794FF79
:102FD0000E2405E0285D0121FFF7F6FE601CC4B257
:102FE0001C2CF7DBBDE8F0812DE9F04107460E46C9
:102FF000154631463846FFF77FFF002405E0285D7F
:103000000121FFF7E1FE601CC4B2082CF7DB701C45
:10301000C1B23846FFF770FF082405E0285D0121A2
:10302000FFF7D2FE601CC4B2102CF7DBBDE8F081C4
:1030300070B50546002404E0285D0121FFF7C4FEB9
:10304000641CB4F5FC7FF7D370BD2DE9F0478046D2
:10305000894616461F46DDF820A0381DC7100025FA
:1030600016E0002410E009EB0502D1B208EB0402DF
:10307000D0B2FFF741FF05FB06411AF8010001211C
:10308000FFF7A2FE601CC4B2B442ECDB681CC5B200
:10309000BD42E6DBBDE8F0872DE9FC4706468946E0
:1030A00015461F46002404E000200DF80400601CB3
:1030B00044B2062CF8DB00240BE00A20B5FBF0F14B
:1030C00000FB11500DF804000A20B5FBF0F5601C60
:1030D00044B20A20B5FBF0F00028EED1E8B20DF8BA
:1030E000040004F0FF0807E01DF804003030C0B20F
:1030F0000DF80400601E44B2002CF5DA002409E04B
:103100003119C8B24946FFF7F7FE2020FFF7DFFE6E
:10311000601C44B2BC42F3DB4FFA88F40BE030464B
:10312000721CD6B24946FFF7E7FE1DF80400FFF710
:10313000CEFE601E44B2002CF1DABDE8FC87000030
:10314000BC02424200004242001002403200002015
:10315000014600BF704700BF464A128802F0400295
:10316000002AF9D0C2B2434B1B1D1A80704710B51C
:1031700086B004460121402000F0BCFC0121202043
:1031800000F012FD02208DF8040000208DF80600EA
:1031900001208DF8070000208DF805004FF48040D5
:1031A00000906946344800F007FA4FF40070009030
:1031B0006946314800F000FA08220E212E4800F03E
:1031C00086FA082209212C4800F081FA0294002096
:1031D000ADF80C00ADF80E00ADF81000ADF814001D
:1031E0000820ADF8120002A9224800F03EFE01219D
:1031F000204800F0C2FE06B010BD10B540F22551C7
:103200001E4800F0ABFF10B31C4800F0E5FEC4B24E
:103210001B48008800F40040C8B91948008800F431
:10322000804060B10A2C03D000201549088020E0BE
:103230001348008840F400401149088019E00D2C23
:1032400006D10F48008840F480400D49088010E006
:103250000B480088C0F30D000A490C540848008848
:10326000401C0749088008460088C72801DD002067
:10327000088010BD001401400018024000100140F9
:10328000E00B0020380F002010B504466FF004005A
:1032900000F0EEF8E11704EB5171C1F3C701394AB0
:1032A00011701046007800EB4001C1EBC0104FF6E2
:1032B000FF7101EAC0003449088010BD0146314A5F
:1032C00012784A434FF0E0235A6100229A611A466D
:1032D000126942F001021A6100BF4FF0E02210694A
:1032E00000F001021AB100F48032002AF5D04FF04C
:1032F000E022126922F001024FF0E0231A6100225D
:103300009A6170470146204A12884A434FF0E023F1
:103310005A6100229A611A46126942F001021A614A
:1033200000BF4FF0E022106900F001021AB100F472
:103330008032002AF5D04FF0E022126922F001021B
:103340004FF0E0231A6100229A61704770B504467D
:103350004FF4077094FBF0F0C6B24FF4077094FB83
:10336000F0F100FB114085B205E04FF40770FFF764
:10337000C9FF701EC6B2002EF7D115B12846FFF75F
:10338000C1FF70BDE20B0020E40B0020094880471C
:1033900009480047FEE7FEE7FEE7FEE7FEE7FEE737
:1033A000FEE7FEE7FEE7FEE704480549054A064B4F
:1033B00070470000E903000889010008A0DA012035
:1033C000A0E00120A0DC0120A0DC01203249014363
:1033D000324A1160704770B5002100230F22C47873
:1033E0001CB32E4C246804F4E064C4F5E064C4F318
:1033F0000721C1F10404E3B20A4144789C40E1B2E0
:103400008478144021430C07210E254C0578615522
:10341000047804F01F050124AC4005786D11AD005F
:1034200005F1E025C5F8004109E0047804F01F0526
:103430000124AC401B4D0678761145F8264070BD3E
:10344000194A0A400243154B1B1F1A60704739B1D5
:10345000124A121D12680243104B1B1D1A6006E02F
:103460000E4A121D126882430C4B1B1D1A607047D6
:10347000042808D14FF0E021096941F004014FF020
:10348000E022116107E04FF0E021096921F0040119
:103490004FF0E022116170470000FA050CED00E0EA
:1034A00000E400E080E100E080FFFF1F10B504466B
:1034B0009848844208D10121084600F086FB00218B
:1034C000012000F082FB76E09348844208D101217C
:1034D000022000F07AFB0021022000F076FB6AE077
:1034E0008E48844208D10121042000F06EFB0021A7
:1034F000042000F06AFB5EE08948844208D1012183
:10350000082000F062FB0021082000F05EFB52E082
:103510008448844208D10121102000F056FB00218C
:10352000102000F052FB46E07F48844208D1012180
:10353000202000F04AFB0021202000F046FB3AE06A
:103540007A48844208D10121402000F03EFB00214E
:10355000402000F03AFB2EE07548844208D101215A
:10356000802000F032FB0021802000F02EFB22E0C2
:103570007048844208D10121801500F026FB00210B
:10358000A01500F022FB16E06B48844208D101210F
:10359000401500F01AFB0021601500F016FB0AE050
:1035A0006648844207D10121001500F00EFB00217E
:1035B000201500F00AFB10BDF0B50A4600210023DB
:1035C000002400BF3DE0012505FA01F3156805EA76
:1035D00003049C4234D105684F000326BE40B54326
:1035E000056015794E00B5400668354305601579CC
:1035F000012D02D01579022D16D185684F000326C2
:10360000BE40B543856055794E00B5408668354368
:103610008560456801268E40B543456045689679CA
:103620008E40B6B235434560C5684F000326BE40A4
:10363000B543C560D5794E00B540C6683543C56011
:10364000491C1029BFD3F0BD4FF6FF710160002166
:10365000017141718171C171704708B54FF48032B9
:103660000092009A0A430092009AC261C161009AD6
:10367000C261C2690092C269009208BD0246002080
:1036800013690B400BB1012000E000207047014698
:10369000086980B270470246002053690B400BB1A5
:1036A000012000E0002070470146486980B2704761
:1036B00001837047418370470AB1018300E0418371
:1036C00070474161704742694A4042617047F0B5B6
:1036D000002300244D07ED0E02FA05F3CE1000F191
:1036E000200555F826504E07F70E0F26BE40B5436D
:1036F000CF1000F1200646F82750CE1000F120052B
:1037000055F8265045EA0304CE1000F1200545F88F
:103710002640F0BD000002400004024000080240C4
:10372000000C024000100240001402400018024049
:10373000001C0240002002400024024000280240F9
:10374000F948006840F00100F74908600020F64998
:1037500008310860F4480068F4490840F2490860FC
:10376000F348091D0860F348EF4984310860F048C8
:103770001038091D0860EC48006820F48020EA49F0
:1037800008600020E8490C310860E7498C31086086
:1037900070470021E44A921C11701146087070476E
:1037A00010B501460022002300204A11012A02D14F
:1037B000DD4C236808E0022A03D1DB4C7034236817
:1037C00002E0D94C7434236801F01F0201249440B4
:1037D0001C400CB1012000E0002010BD38B50020D5
:1037E00000900024002500BF3120FFF7D9FF0546D7
:1037F0000098401C00900098B0F5A04F01D0002D1B
:10380000F2D03120FFF7CCFF08B1012400E0002402
:10381000204638BD01460020C34A106820F0F80059
:1038200040EAC10010607047C3490860704700213A
:10383000BD4A703211701170012802D004280AD1DB
:1038400004E00121B84A7032117005E00521B64A42
:103850007032117000E000BF00BF7047B7490860C8
:10386000704770B5049C41EA82150126C6EB5306E9
:1038700045EA0645054345EA0465AB4E361D35600D
:1038800070BDAD4908667047820142EA0172A64BDD
:1038900084331A607047A8498866704710B5830161
:1038A00043EA016343EA02739F4C8834236010BDEE
:1038B000A14908677047A049C864704702460020C4
:1038C000994B0833186820F0EC6042EA0103184372
:1038D000954B08331860704702460020924B08331E
:1038E000186820F0784042EA010318438E4B0833F1
:1038F00018607047014600208B4A0832106820F09B
:10390000030008431060704787480830006800F0E3
:103910000C00704701460020834A0832106820F0EE
:10392000F000084310607047014600207E4A0832CC
:10393000106820F4E05008431060704701460020F2
:10394000794A0832106820F4604040EAC1001060F3
:103950007047F0B500210022002402250026022332
:10396000714F08373F6807F00C0121B1042905D0D9
:10397000082937D105E0724F076036E0714F0760C4
:1039800033E0694F3F1D3F68C7F38056664F3F1DC8
:103990003F6807F03F036EB16A4FB7FBF3F7DFF8FC
:1039A00088C10CF1040CDCF800C0CCF3881C07FBC8
:1039B0000CF40CE0624FB7FBF3F7DFF86CC10CF1CD
:1039C000040CDCF800C0CCF3881C07FB0CF4564F49
:1039D0003F1D3F68C7F301477F1C7D00B4FBF5F72F
:1039E000076002E0564F076000BF00BF4E4F083728
:1039F0003F6807F0F0010909534F7A5C0768D74028
:103A00004760494F08373F6807F4E051890A4E4F35
:103A10007A5C4768D7408760434F08373F6807F4B0
:103A20006041490B484F7A5C4768D740C760F0BD9A
:103A3000002100F44072B2F5407F0AD13A4A0832C0
:103A4000116821F4F811414A02401143364A083204
:103A50001160354A70321268C0F30B031A43324BBF
:103A600070331A60704735494439086070473349EC
:103A700040390860704736490860704701460020A9
:103A8000294A8C32106820F01F004A1E1043264A33
:103A90008C321060704701460020234A8C32106837
:103AA00020F4F8504A1E40EA02201F4A8C3210606F
:103AB0007047014600201C4A8C32106820F44010E8
:103AC00008431060704701460020174A8C32106886
:103AD00020F4400008431060704701460020124A5D
:103AE0008C32106820F44030084310607047194948
:103AF0000860704739B10C4A3032126802430A4BF1
:103B000030331A6006E0084A303212688243064BAE
:103B100030331A607047F9B1034A343212680243F5
:103B2000014B34331A601CE000380240FFFFF6EA14
:103B3000103000240030002000004742800E474231
:103B40000024F40040787D01E60B0020FFFCFF0F0D
:103B50005C014742E01147428F4A126882438E4B14
:103B60001A60704739B18C4A121D126802438A4BA1
:103B70001B1D1A6006E0884A121D12688243864B9C
:103B80001B1D1A60704739B1834A0C321268024318
:103B9000814B0C331A6006E07F4A0C321268824374
:103BA0007D4B0C331A60704739B17B4A1032126872
:103BB0000243794B10331A6006E0774A10321268DC
:103BC0008243754B10331A60704739B1724A243AF8
:103BD00012680243704B243B1A6006E06E4A243A96
:103BE000126882436C4B243B1A60704739B16A4AB1
:103BF000203A12680243684B203B1A6006E0664A8E
:103C0000203A12688243644B203B1A60704739B1F6
:103C1000614A1C3A126802435F4B1C3B1A6006E083
:103C20005D4A1C3A126882435B4B1C3B1A6070472A
:103C300039B1594A143A12680243574B143B1A607F
:103C400006E0554A143A12688243534B143B1A60FB
:103C5000704739B1504A103A126802434E4B103B3C
:103C60001A6006E04C4A103A126882434A4B103BF5
:103C70001A60704739B1484A1C3212680243464BF9
:103C80001C331A6006E0444A1C3212688243424BDD
:103C90001C331A60704739B13F4A20321268024320
:103CA0003D4B20331A6006E03B4A203212688243C3
:103CB000394B20331A60704739B1374A24321268C1
:103CC0000243354B24331A6006E0334A243212682B
:103CD0008243314B24331A60704739B12E4A2C325B
:103CE000126802432C4B2C331A6006E02A4A2C320D
:103CF00012688243284B2C331A60704739B1264A28
:103D0000303212680243244B30331A6006E0224AF4
:103D1000303212688243204B30331A6070470128DA
:103D200008D11D493C31096841F008011A4A3C326A
:103D3000116007E018493C31096821F00801164A72
:103D40003C321160704739B1134A273A1278024366
:103D5000114B273B1A7006E00F4A273A127882432C
:103D60000D4B273B1A7070470B484030006840F0FD
:103D70008070094940310860704701460020064ABA
:103D8000283A12680A400AB1012000E0002070477A
:103D900001492639087070473438024010B504468E
:103DA000FA48844208D101211020FFF752FF002178
:103DB0001020FFF74EFF57E0F548844209D101215A
:103DC0004804FFF735FF00214FF40030FFF730FFC4
:103DD0004AE0F048844209D101218804FFF728FF16
:103DE00000214FF48020FFF723FF3DE0EA488442A2
:103DF00009D10121C804FFF71BFF00214FF4002067
:103E0000FFF716FF30E0E548844209D1012108059B
:103E1000FFF70EFF00214FF48010FFF709FF23E0AA
:103E2000DF48844208D101212020FFF712FF002142
:103E30002020FFF70EFF17E0DA48844209D1012164
:103E40008807FFF7F5FE00214FF08040FFF7F0FEF6
:103E50000AE0D548844207D101214005FFF7E8FE7A
:103E600000216005FFF7E4FE10BD2DE9FF47054680
:103E70000E460024A14600BFA046B08900B100BF95
:103E80002C8A24F44054F08804432C82AC8941F2FB
:103E90000C608443B0883189084371890843044326
:103EA000AC81AC8A24F44074B0890443AC82684687
:103EB000FFF74FFDB548854202D0B948854202D18F
:103EC000DDF80C9001E0DDF80890A88900F40040CE
:103ED00040B109EBC90000EB091031684900B0FBA3
:103EE000F1F707E009EBC90000EB09103168890020
:103EF000B0FBF1F76420B7FBF0F004012009642166
:103F000001FB1078A88900F4004040B1322000EB9A
:103F1000C800B0FBF1F000F00700044308E03220D5
:103F200000EB08106421B0FBF1F000F00F00044337
:103F30002C81BDE8FF874FF416510160002181807C
:103F4000C18001810C21418100218181704710B520
:103F500002460020108A20F470600B884C882343AE
:103F60008C882343CC8823431843108210BD002142
:103F7000018041808180C180704721B1828942F4F3
:103F80000052828104E082894DF6FF731A408281DB
:103F90007047028B02F47F420283028B0A43028342
:103FA000704721B1828942F40042828103E0828914
:103FB000C2F30E028281704721B1828A42F400620C
:103FC000828204E0828A4FF2FF731A408282704735
:103FD000C1F308028280704701468888C0F3080058
:103FE0007047028A4FF6F0731A400282028A0A432F
:103FF0000282704721B1828942F00202828104E08C
:1040000082894FF6FD731A408281704782894FF290
:10401000FF731A40828182890A4382817047028A33
:104020004FF6DF731A400282028A0A430282704707
:1040300021B1028A42F48042028204E0028A4BF6F5
:10404000FF731A4002827047818941F0010181812A
:10405000704721B1828A42F00802828204E0828A9B
:104060004FF6F7731A4082827047028BD2B20283F6
:10407000028B42EA01220283704721B1828A42F018
:104080002002828204E0828A4FF6DF731A40828225
:10409000704721B1828A42F01002828204E0828A53
:1040A0004FF6EF731A4082827047828A4FF6FB7395
:1040B0001A408282828A0A438282704721B1828AB0
:1040C00042F00202828204E0828A4FF6FD731A40B7
:1040D000828270471AB1838A0B43838202E0838A0B
:1040E0008B4383827047F0B50346002400260025E9
:1040F000002040F66A17B94200D100BF1846C1F34C
:10410000421401F01F06012707FA06F5012C01D120
:104110000C3004E0022C01D1103000E014301AB150
:1041200007682F43076002E00768AF430760F0BDF0
:1041300002460020B1F5007F00D100BF13880B407C
:104140000BB1012000E00020704701F40072B2F5CD
:10415000007F00D100BFCA430280704770B502469D
:10416000002400230025002040F66A16B14200D149
:1041700000BFC1F3421501F01F03012606FA03F345
:10418000012D13D19689334017E000000010014043
:104190000044004000480040004C004000500040F7
:1041A0000014014000780040007C0040022D02D144
:1041B000168A334001E0968A33400C12012606FA33
:1041C00004F41688344013B10CB1012000E0002043
:1041D00070BD10B50022002340F66A14A14200D140
:1041E00000BF0A1201249440A3B2DC43048010BD36
:1041F00010B50446FB48844208D101218014FFF722
:1042000028FD0021A014FFF724FD3CE0F64884427D
:1042100008D101210014FFF70BFD00212014FFF746
:1042200007FD30E0F148844208D10121C013FFF7B7
:10423000FFFC0021E013FFF7FBFC24E0EC48844284
:1042400008D101214014FFF704FD00216014FFF79D
:1042500000FD18E0E748844209D101210805FFF775
:10426000F8FC00214FF48010FFF7F3FC0BE0E2486C
:10427000844208D101214805FFF7EBFC00214FF4EF
:104280000010FFF7E6FC10BD10B50022028802F412
:1042900041520B884C8823438C882343CC8823438A
:1042A0000C8923434C8923438C892343CC892343A2
:1042B0001A430280838B4FF2FF74234083830B8A5F
:1042C000038210BD2DE9F04F0025022300244FF09A
:1042D000010900220026002794469046B0F81CA051
:1042E0004FF2400B0AEA0B0AA0F81CA04FF0020A9A
:1042F000A0F820A0858BD1F808A0BAF1020F01D157
:1043000000BF82E0B1F804A0BAF1000F02D14FF073
:10431000010901E04FF00209DFF8E0A2DAF800A09D
:104320000AF4000ABAF1000F09D0DFF8D0A2DAF8D7
:1043300000A02AF4000ADFF8C4B2CBF800A0DFF82E
:10434000BCA20AF17C0ADAF800A0CAF3881CDFF8E4
:10435000ACA20AF17C0ADAF800A0CAF30278DFF80E
:104360009CA2AAF1040ADAF800A00AF03F07DFF8DD
:104370008CA2AAF1040ADAF800A00AF4800ABAF5BD
:10438000800F08D1DFF878A2BAFBF7FA0AFB0CFA23
:10439000BAFBF8F607E0DFF86CA2BAFBF7FA0AFB03
:1043A0000CFABAFBF8F6B1F806A0BAF5007F0ED108
:1043B0004FEA162A0AEB8A0A4FEA4A0AD1F808B0ED
:1043C000BAFBFBFA0AF1050A1FFA8AF20FE04FEA7C
:1043D000491AB6FBFAFA0AEB8A0A4FEA4A0AD1F8F6
:1043E00008B0BAFBFBFA0AF1050A1FFA8AF24FF08D
:1043F0000A0AB2FBFAF202F00104A2EB040ACAF3C1
:104400004F034FF6FF7A0AEA0424022B01DBFF2B4D
:1044100001DD02230024B1F806A04AEA040A4AEAB0
:10442000030AA0F820A0B1F804A0B1F80CB04AEA41
:104430000B0AB1F802B04AEA0B0AB1F800B04AEA36
:104440000B0A4AF4006A4AEA05058583BDE8F08F45
:104450000021018041808180C18001814181818171
:10446000C181072101827047002101804180818044
:10447000C1800221816000218181704721B10288C1
:1044800042F04002028004E002884FF6BF731A40F7
:104490000280704721B1828B42F48062828304E003
:1044A000828B4FF6FF331A408283704702884FF2A7
:1044B000FF731A40028002880A4302807047B1F5F8
:1044C000804F04D1028842F48042028004E00288D6
:1044D0004BF6FF731A40028070474FF6FF6291421D
:1044E00004D0028842F48072028004E002884FF611
:1044F000FF631A400280704721B1828842F00402B3
:10450000828004E082884FF6FB731A4082807047F5
:1045100021B1828842F01002828004E082884FF646
:10452000EF731A408280704730B500220023848BDD
:104530004FF240052C40848302240484828B0C8833
:10454000B4F5007F01D00C8814B94FF4807308E0F3
:104550000C88B4F5407F03D00C88B4F5807F00D17F
:1045600000238C888D892C434D882C431C4344F4B4
:1045700000642243828330BD01468889704781816F
:10458000704721B1028842F40052028004E00288A0
:104590004DF6FF731A4002807047018841F4805144
:1045A0000180704702460020012901D0108B00E0F5
:1045B000908A70470146088A70471AB183880B4376
:1045C000838002E083888B438380704730B500246A
:1045D00000230C110125A540ABB2AAB185881D436B
:1045E000858014E00030014000380040003C00406D
:1045F000003401400050014000540140083802409E
:1046000040787D010024F40085889D43858030BD7D
:104610000246002013890B400BB1012000E000206E
:104620007047CA4302817047F0B50246002000245B
:104630000023002501F00F070126BE40B4B20B1184
:1046400001269E40B3B2968806EA030516892640E5
:1046500016B10DB1012000E00020F0BD10B5002220
:1046600001F00F040123A3409AB2D343038110BD8C
:1046700010B50121C802FFF7ECFA00214FF40060E9
:10468000FFF7E7FA10BD00216C4A116847F6FF6298
:104690009143027D83681A4343681A43C3681A43EF
:1046A00003681A4303691A431143644A116070474F
:1046B00000210175016041608160C1600161704746
:1046C0005F49086070475D49091F086070475B4893
:1046D000001F006800F0030070470021574B1B1DAE
:1046E00002681A601A1D11686FF30A01D0E90123EC
:1046F0001A43C3681A4303691A4311434F4A0832E5
:10470000116070470021016041608160C1600161FA
:1047100070474A480C300068C0B2704708B501467F
:104720000020009045481030084400900098006830
:1047300008BD0021414B203302681A601B1D4268EE
:104740001A601A1D116821F0F701D0E902231A43FB
:1047500003691A4343691A431143384A28321160E6
:1047600070474FF0FF310160002141608160C160FE
:1047700001614161704731482C30006870472F4813
:104780007C30006870472D497C31086070472B48A9
:104790004430006870472B49086070472949091D5B
:1047A00008607047274908310860704725490C3177
:1047B000086070472449086070472349091D086054
:1047C000704701218143204A0832116070471E4919
:1047D0000C31086070471B4914390860704739B1C3
:1047E000164A383212680243144B38331A6006E016
:1047F000124A383212688243104B38331A607047BD
:10480000014600200D4A303212680A400AB10120E8
:1048100000E00020704709493431086070470146C4
:104820000020064A303212680A400AB1012000E036
:10483000002070470149343108607047042C014062
:10484000A0802542A0852542AC812542016821F047
:10485000010101600021016041608160C16001616E
:1048600021214161DB49884204D13D21D94A103AD6
:1048700091608CE0D7491831884205D14FF47461BA
:10488000D44A103A916082E0D2493031884205D151
:104890004FF47411CF4A103A916078E0CD49483115
:1048A000884205D14FF07461CA4A103A91606EE0B7
:1048B000C8496031884204D1C749C64A103AD1601C
:1048C00065E0C4497831884204D1C449C14A103AEC
:1048D000D1605CE0BF499031884204D1C049BD4AF3
:1048E000103AD16053E0BB49A831884205D14FF05E
:1048F0003D51B84A103AD16049E0BA49884204D1E2
:104900003D21B84A083A116041E0B6491831884261
:1049100005D14FF47461B34A083A116037E0B149E8
:104920003031884205D14FF47411AE4A083A116013
:104930002DE0AC494831884205D14FF07461A94A55
:10494000083A116023E0A7496031884204D1A249A6
:10495000A44A121F11601AE0A2497831884204D19A
:104960009E49A04A121F116011E09E499031884271
:1049700004D19B499B4A121F116008E09949A83154
:10498000884204D14FF03D51964A121F1160704782
:1049900010B500220268944B1A40CC680B68234380
:1049A0004C6923438C692343CC6923430C6A23431A
:1049B0004C6A23438C6A23434C6B23438C6B234305
:1049C0001A430260426922F00702D1E90B34234303
:1049D0001A4342610B6943604B6883608B68C36014
:1049E00010BD0021016041608160C16001614161D1
:1049F0008161C161016241628162C162016341639F
:104A00008163704721B1026842F00102026003E055
:104A1000026822F001020260704721B1026842F48C
:104A20000042026003E0026822F400420260704724
:104A300021B1026842F02002026003E0026822F025
:104A4000200202607047416070470146486880B2AA
:104A5000704722B1036843F40023036003E0036856
:104A600023F4002303600161704721B1026842F41E
:104A70008022026003E0026822F480220260704714
:104A80000AB1016100E0C1607047014600200A6878
:104A900002F400220AB1012000E000207047014624
:104AA00000200A6802F001020AB1012000E00020A3
:104AB0007047014600204A6902F03800704730B55F
:104AC00003460A4600200024464DAB4202D241492B
:104AD000103901E04349103902F000550DB14C681E
:104AE00000E00C68414D2C4004EA02050DB10120A4
:104AF00000E0002030BD02463A4B9A4202D23548CF
:104B0000103801E03748103801F000531BB1374B23
:104B10000B40C36002E0354B0B408360704710B51B
:104B200001F080034BB122B1436943F0800343613C
:104B300003E0436923F08003436180290BD02AB14D
:104B4000036801F01E042343036004E0036801F0DE
:104B50001E04A343036010BD70B50246002000246C
:104B60000025204EB24202D21A4B103B01E01D4BF1
:104B7000103B1F4E0E4036B11E2606EAD1241668A1
:104B800006EA040502E0566906F0800501F00056C9
:104B90000EB15C6800E01C68144E344004EA010663
:104BA00016B10DB1012000E0002070BD02460D4B92
:104BB0009A4202D20748103801E00A48103801F042
:104BC00000531BB1094B0B40C36002E0074B0B4085
:104BD00083607047106002403D000020400F0020BD
:104BE00000003D20106402403F801CF07D0F7D0FCF
:104BF0003C0F3C0F70B503460C4603E014F8015B14
:104C000003F8015B151EA2F10102F7D170BD30B5AA
:104C1000034601E003F8011B141EA2F10102F9D1C1
:104C200030BD10B504467A4951F824104A0079493C
:104C300051F824000021FFF7EAFF774951F82420BA
:104C400074490C3951F824000021FFF7E0FF0121DD
:104C500070480C30015510BD10B5014600230022EC
:104C600007E06C4850F8210030F8120000B15B1CDE
:104C7000521C674850F821009042F2D864205843F3
:104C8000634C54F82140B0FBF4F0C0B210BD2DE9E4
:104C9000F04704460F460025A9465E480C30005DEB
:104CA00020B95C4814380168204688471FB94FF086
:104CB000FF30BDE8F087594850F82400B7FBF0F604
:104CC000564850F82400B7FBF0F100FB117000B11A
:104CD000761C4F4850F82400451E20E04D4850F8FF
:104CE000240030F8150010B909F1010901E04FF076
:104CF0000009B14512D14FF0000808E0454850F8CE
:104D0000240005EB080220F8126008F10108B04504
:104D1000F4D3424850F824006843CAE76D1E002DC2
:104D2000DCDA4FF0FF30C4E72DE9F04104460E46CF
:104D300038480C30005D38B93648143801682046D0
:104D400088470120BDE8F081334850F82400B04284
:104D500017D9324850F82400B6FBF0F12D4850F82E
:104D6000240030F81120002507E00023294850F8DE
:104D700024004F1920F817306D1C9542F5DB0020F8
:104D8000E0E70220DEE770B505460C4604B970BDC9
:104D900020480C3850F82500261A31462846FFF7DF
:104DA000C3FF00BFF3E770B504460E463146204608
:104DB000FFF76DFF0546681C08B9002070BD154857
:104DC0000C3850F824002844F8E72DE9F041044657
:104DD0000F46164631462046FFF759FF0546681C28
:104DE00010B90020BDE8F0810A490C3951F82410AF
:104DF000481932463946FFF7FDFE39462046FFF78F
:104E0000C2FF04480C3850F824002844EAE70000A8
:104E1000383601080C0C00205036010844360108D1
:104E200070B5044600251CB9FCF7A0F9054601E061
:104E3000012500BF00BF0DB1012070BD0020FCE7BF
:104E40000146002070472DE9F04105460E46174601
:104E50001C464FF0000814B90420BDE8F08195B954
:104E6000E2B239463046FDF7E3F9804607E0FCF749
:104E70007DF9E2B239463046FDF7DAF98046B8F1FD
:104E8000000FF4D102E04FF0010800BF00BFB8F1FD
:104E9000000F01D10020E0E70120DEE72DE9F0411D
:104EA00005460E4617461C464FF0000814B904206C
:104EB000BDE8F08195B9E2B239463046FDF716FA01
:104EC000804607E0FCF752F9E2B239463046FDF77A
:104ED0000DFA8046B8F1000FF4D102E04FF001085E
:104EE00000BF00BFB8F1000F01D10020E0E70120B2
:104EF000DEE72DE9F04706468946154646BBB9F17F
:104F0000000F09D0B9F1010F13D0B9F1020F05D08C
:104F1000B9F1030F19D106E0002418E04FF4007036
:104F20002860002413E02548B0F8500028800024B1
:104F30000DE022484FF400720023D0E91271384688
:104F40000DF04AFB2860002401E0042400BF22E0A9
:104F5000012E1FD1B9F1000F09D0B9F1010F11D005
:104F6000B9F1020F05D0B9F1030F10D106E000240A
:104F70000FE04FF40070288000240AE00820288009
:104F8000002406E00E4800882860002401E0042484
:104F900000BF00E001242046BDE8F08700207047F4
:104FA00010B5044621460020FFF7FDFE10BD10B5E8
:104FB000044621460020FFF7E6FE10BDE00C00206D
:104FC0001C0C002070B503460C4603E014F8015B8E
:104FD00003F8015B151EA2F10102F7D170BD30B5D7
:104FE000034601E003F8011B141EA2F10102F9D1EE
:104FF00030BDF0B503461C460D46002000BF161E0E
:10500000A2F1010207D014F8017B15F801CBA7EB40
:105010000C06301EF3D0F0BD024600E0521C1078A2
:1050200010B110788842F9D11078704770B50446F5
:105030002079F8B1E56A607801232A4604F130014D
:10504000FFF72CFF08B1012070BD00202071206AFD
:10505000281AA16988420DD2E67809E0A0690544C2
:10506000607801232A4604F13001FFF717FF761E0E
:10507000022EF3D20020E7E770B504460D46E06A41
:10508000A84210D02046FFF7D1FF08B1012070BD23
:10509000607801232A4604F13001FFF7D4FE08B1FD
:1050A0000120F4E7E5620020F1E770B504462046F0
:1050B000FFF7BCFF0546002D59D1207803284FD1BA
:1050C000607901284CD14202002104F13000FFF741
:1050D00086FF552184F82E12AA2184F82F1252201F
:1050E00084F83000522131200155612132200155D0
:1050F000412133200155722184F8141284F81512CD
:10510000412184F81612612184F81712217C84F859
:105110001812208A010A84F819122069010C84F8F7
:105120001A122069010E84F81B12217B84F81C12CC
:10513000A089010A84F81D12E068010C84F81E128F
:10514000E068010E84F81F12E069401CE06260789C
:10515000012304F13001E26AFFF7A0FE0020607134
:10516000607800221146FFF7C4FE00B101252846F1
:1051700070BD0246891E5069801E884201D80020F9
:1051800070479378906A01FB0300F9E72DE9F0413D
:1051900005460C46022C02D36869A04202D80120C1
:1051A000BDE8F0812878012804D002282CD00328FB
:1051B0005AD13DE0274607EB5707286A00EB5721F5
:1051C0002846FFF759FF00B150E0C7F3080105F189
:1051D000300010F801807F1C286A00EB5721284618
:1051E000FFF74AFF00B141E0C7F3080105F13000C5
:1051F000405C48EA002804F0010010B14FEA1810A2
:10520000CEE7C8F30B00CBE7286A00EB1421284651
:10521000FFF732FF00B129E040F2FF1000EA44013D
:1052200005F130000E183078717840EA0120B7E7B8
:10523000286A00EBD4112846FFF71EFF00B115E0E5
:1052400040F2FF1000EA840105F130000E18F078FA
:105250000006B17840EA0140717840EA01203178D7
:10526000084320F070409BE7012099E700BF4FF012
:10527000FF3095E72DE9F04705460E461746022E0A
:1052800002D36869B04202D84FF002088AE0287859
:10529000012804D0022841D003287DD154E0B14632
:1052A00009EB5909286A00EB59212846FFF7E4FE6B
:1052B0008046B8F1000F00D071E0C9F3080105F194
:1052C00030000C1806F0010020B1F9B2207861F32B
:1052D0001F1000E03846207009F1010901202871F3
:1052E000286A00EB59212846FFF7C6FE8046B8F130
:1052F000000F00D053E0C9F3080105F130000C188D
:1053000006F0010010B1C7F3071005E0207800F0A7
:10531000F000C7F303210843207040E0286A00EB47
:1053200016212846FFF7A8FE8046B8F1000F00D0EE
:1053300035E040F2FF1000EA460105F130000C189C
:105340002770380A60702AE0286A00EBD6112846D8
:10535000FFF792FE8046B8F1000F00D01FE040F248
:10536000FF1000EA860105F130000C18E078000615
:10537000A17840EA0140617840EA012021780843A1
:1053800000F0704007432770380A6070380CA07036
:10539000380EE07003E0FFE74FF0020800BF00BFE7
:1053A000012028714046BDE8F0872DE9F041044610
:1053B0000E46022E02D36069B04201D8022727E0D0
:1053C000002721E031462046FFF7E0FE054605B9FB
:1053D0001DE0012D01D1022719E0681C08B9012741
:1053E00015E0002231462046FFF744FF074607B18B
:1053F0000DE02069401C30B12069401C20616079BB
:1054000040F0010060712E466069B042DAD800BFFA
:105410003846BDE8F0812DE9F04704468946B9F1E8
:10542000000F06D1E76817B16069B84215D80127A7
:1054300013E049462046FFF7A9FE0646022E02D297
:105440000120BDE8F087701C08B93046F9E76069B3
:10545000B04201D93046F4E74F463D4600BF6D1CCF
:105460006069A84204D80225BD4201D90020E8E7BE
:1054700029462046FFF78AFE064606B909E0701C59
:1054800008B1012E01D13046DBE7BD42E7D1002053
:10549000D7E700BF6FF0704229462046FFF7EAFECB
:1054A0008046B8F1000F08D1B9F1000F05D02A46A7
:1054B00049462046FFF7DEFE8046B8F1000F0BD1CB
:1054C000E5602069401C78B12069401E2061607948
:1054D00040F00100607107E0B8F1010F02D14FF018
:1054E000FF3000E0012005462846AAE770B50346D4
:1054F0000D46586A021D680A1E68B678B0FBF6F4BD
:1055000000BF02CA09B9002070BD8C4200D202E07F
:10551000641A121DF5E700BF10682044F4E72DE976
:10552000F04104460E46E680A568012D03D02068B0
:105530004069A84202D80220BDE8F0812DB9206858
:105540000078032801D12068456A45B920680089A0
:10555000B04201D80220EFE72068476A1EE02068C9
:1055600080784FEA001812E029462068FFF70EFE07
:105570000546681C08B90120DEE7022D03D3206828
:105580004069A84201D80220D6E7A6EB08064645A6
:10559000EAD229462068FFF7ECFD0746E5600FB91F
:1055A0000220C9E707EB161020612068303006F0B2
:1055B0000F0100EB411060610020BDE72DE9F041D3
:1055C00004468846E088461CB0B208B1206910B98C
:1055D0000420BDE8F08106F00F0000286CD120699E
:1055E000401C2061E06828B920680089B04263D877
:1055F0000420EEE720688078401E00EA161000289C
:105600005AD1E1682068FFF7C1FD0546012D01D898
:105610000220DEE7681C08B90120DAE7206840694B
:10562000A84243D8B8F1000F01D10420D1E7E168C6
:105630002068FFF7F0FE05460DB90720C9E7012DE8
:1056400001D10220C5E7681C08B90120C1E7206824
:10565000FFF7ECFC08B10120BBE7216801F1300045
:105660004FF400720021FFF7BAFC29462068FFF7CB
:1056700080FD2168C86200270EE0012021680871C2
:105680002068FFF7D3FC08B10120A2E72068C06AB8
:10569000401C2168C8627F1C20688078B842ECD822
:1056A0002068C06AC01B2168C86200BFE560294647
:1056B0002068FFF75EFD2061E6802068303006F04C
:1056C0000F0100EB41106061002082E72DE9F041FD
:1056D00004460E4600212046FFF721FF0546EDB99E
:1056E000002700BF21692068FFF7C6FC054605B109
:1056F00013E060690078E52802D06069007820B97D
:10570000781C0746B04201D107E00027012120465E
:10571000FFF754FF0546002DE4D000BF042D00D153
:1057200007252846BDE8F08110B502468C7ECB7E69
:1057300044EA03201378032B05D10C7D4B7D44EA0A
:10574000032340EA034010BD81760B0AC3760A0C9E
:1057500002750B0E437570472DE9F04705460C4660
:10576000207820F04000401E00EB800101EBC006D5
:1057700000274FF0010800BFF848C05D205CF749E2
:10578000C95D2144497840EA0129B8F1000F10D0E1
:10579000484602F03AFE8046FF2E07D23146761C7C
:1057A00035F8110002F031FE404508D00020BDE878
:1057B000F0874FF6FF70814501D00020F7E7781C95
:1057C00007460D28D8D3207800F0400038B1B8F152
:1057D000000F04D035F8160008B10020E7E70120DB
:1057E000E5E7F0B50346087800F03F00401E00EB07
:1057F000800707EBC0020025012600BFD748405DA7
:10580000085CD64F7F5D0F447F7840EA07244EB195
:10581000FF2A01D30020F0BD26461046521C23F873
:10582000104005E04FF6FF70844201D00020F2E7FF
:10583000681C05460D28E1D3087800F0400030B11F
:10584000FF2A01D30020E6E7002023F81200012000
:10585000E1E7F0B504461D464D730F27CF720027D0
:105860000F738F76BC4681F81BC0571E07EB870C61
:105870000CEBC706002738463B4600BF4FF6FF77C4
:10588000B84203D03746761C34F81700DFF8CCC294
:105890001CF803C001F80C000712DFF8C0C21CF8A6
:1058A00003C08C448CF8017008B94FF6FF705F1C80
:1058B0003B460D2FE2D34FF6FF77B84202D034F8C3
:1058C00016700FB942F040020A70F0BD2DE9FC4796
:1058D00007468A4690461E460B2251463846FFF739
:1058E00071FB052E18D9304610E038F8021B002550
:1058F0000AE00A4660F35F021046491000F4803265
:105900000AB1974A50406D1C102DF2D3B8F8002010
:10591000002AEAD1064600BF072500BF06F00F00A7
:1059200000F13009B9F1390F03DD09F1070000F08A
:10593000FF0928466D1E0DF800903609002EEDD1A6
:105940007E200DF8050000240BE0385D812807DB80
:10595000385DFE2804DC681EA04200D106E0641C0D
:10596000641CAC4202D2385D2028EED100BF00BFDB
:10597000082D04D228466D1C1DF8001000E02021DF
:105980002046641C3954082CF2D3BDE8FC8730B59E
:10599000014600200B2200BF431003EBC01411F896
:1059A000015B6319D8B2531E1A1EF5D130BD2DE923
:1059B000F047044600212046FFF7B1FD074617B126
:1059C0003846BDE8F0874FF0FF09CA464FF6FF7032
:1059D000208400BF21692068FFF74EFB074607B10E
:1059E00057E065692E780EB9042752E0E87A00F096
:1059F0003F08E52E05D008F0080040B1B8F10F0FC0
:105A000005D04FF0FF094FF6FF7020843AE0B8F15F
:105A10000F0F1CD1E06978B306F0400030B195F863
:105A20000DA026F04006B146E08820844E450AD1FC
:105A3000687B504507D12946E069FFF78DFE10B11C
:105A4000A9F1010000E0FF2000F0FF091AE0B9F120
:105A5000000F05D12846FFF79AFF504500D118E006
:105A6000A069C07A00F0010038B90B222846A1696C
:105A7000FFF7BFFA08B90CE004E04FF0FF094FF65A
:105A8000FF70208400212046FFF798FD0746002F75
:105A9000A0D000BF384694E72DE9F05F04468A465F
:105AA0004FF0FF09CB4604274EE021692068FFF73D
:105AB000E3FA074607B14AE0666935780DB904276D
:105AC00045E0F07A00F03F08E52D09D02E2D07D0F3
:105AD000B8F1080F01D1012000E00020504502D0AC
